:020000020000FC
:020000002EC010
:10005C002BC001E20EBF0FEF0DBF11240FEF01B942
:10006C0007B9002704BD05E005BD01E000936E0053
:10007C003327222702D07894FFCF0F921F92EF9351
:10008C00FF936F93622F660FF0E0ECECE60FF11D1F
:10009C00459154914095509542B958B96F91FF9143
:1000AC00EF911F900F9008950F9333953E3131F4DB
:1000BC0033272395273008F02227DFDF0F9118957F
:0E00CC008F083722760489083922380037223F
:00000001FF
