:020000020000FC
:020000002EC010
:020004004EC0EC
:0200080058C0DE
:10005C0069C001E20EBF0FEF0DBF0FEF00BB0093A5
:10006C00070100270AB903E00BB90AE00093690005
:10007C0003E00DBB05E005BD01E000936E0011240B
:10008C00222733276627772744275527AA277894D2
:10009C0000C02DD0FECF0F930FB70F93552319F43B
:1000AC00F99B16D054E10F910FBF0F9118950F9338
:1000BC000FB70F93552341F4772331F061E0882774
:1000CC009927AA270FD054E10F910FBF0F911895C4
:1000DC0071BD002702BD20BDFA9AF99A7F3F09F045
:1000EC007395089592BD81BDF89A40B508950F920D
:1000FC00EF93FF93042F02950F70F2E0E0E0E00F16
:10010C00F11D0491009500930801042F0F70F2E08B
:10011C00E0E0E00FF11D0491009501BBFF91EF9120
:10012C000F9008950F930FB70F93552309F05A951D
:10013C0033953A3031F433272395603011F4422F44
:10014C000DC0613059F4A395A23341F4AA278395CD
:10015C00871719F46627422F01C0C4DF0F910FBF18
:04016C000F91189542
:10020000DB114F5795D6DE51DFD7DD9E0E1FCECCCA
:00000001FF
