:020000020000FC
:020000002EC010
:02000400DBC05F
:02000800F1C045
:02000C0007C12A
:0200100010C11D
:10005C0087C001E20EBF0FEF0DBF112422273327FB
:10006C00662799278827AA270FEF00BB0093070163
:10007C0001E004B900270AB90FE00BB90AE00093BC
:10008C0069000AE000936A000FE00DBB05E005BDB6
:10009C0001E000936E0004D0789400C032D0FECF03
:1000AC0000E001BD002702BDF89A40B54A3008F4C3
:1000BC004AE04F3108F04EE101E001BD002702BDDE
:1000CC00F89A50B5513008F451E05B3008F05AE022
:1000DC002227089500E001BD002702BD40BDFA9A19
:1000EC00F99AF999FECF01E001BD002702BD50BD80
:1000FC00FA9AF99A08954FE055E022276627EADF2D
:10010C000895603011F4022F01C0072F903099F040
:10011C00132F187029F0913071F0603061F40BC01E
:10012C00913021F4603039F4002705C0923019F475
:10013C00613009F400270F9302950F70F6E0E0E0B0
:10014C00E00FF11D04910095009308010F910F70C1
:10015C00F6E0E0E0E00FF11D0491009501BB08957D
:10016C000F930FB70F93882309F08A9533953F307F
:10017C00D9F43327603039F423952417A9F461E0BE
:10018C00752FAA2711C001E0A5B1A027A5B9A0FD24
:10019C0000C0772319F07A95772331F4002705B93D
:1001AC00703011F460E022270F910FBF0F9118955A
:1001BC000F930FB70F93882379F48AE0903061F096
:1001CC00913031F44E3141F04395242F83DF04C03C
:1001DC005A3011F053957EDF0F910FBF0F91189588
:1001EC000F930FB70F93882379F48AE0903061F066
:1001FC00913031F44B3040F04A95242F6BDF04C022
:10020C00523010F05A9566DF0F910FBF0F91189571
:10021C000F930FB70F93882329F48AE093959330AB
:10022C0008F099270F910F930FB70F93882311F4B0
:0C023C008AE061DF0F910FBF0F91189551
:10060000BE0CB5AD0FABBB2CFFEF7FDB91DDF37301
:00000001FF
